:100000000EC020C01FC01EC01DC01CC01BC01AC017
:1000100019C018C017C016C015C014C014C01124D0
:100020001FBECFE5D2E0DEBFCDBF10E0A0E6B0E05E
:10003000E6EAF6E002C005900D92A236B107D9F7C4
:1000400061D12FC3DDCF1F920F9200905F000F92FE
:1000500011242F933F938F939F93EF93FF93CF930D
:10006000DF93CDB7DEB7F89488E390E028E330E083
:10007000F901308128E02327FC01208378940000D7
:10008000DF91CF91FF91EF919F918F913F912F91B0
:100090000F9000925F000F901F901895CF93DF9301
:1000A000CDB7DEB76C970FB6F894DEBF0FBECDBFED
:1000B0008EE290E02EE230E0F90120812064FC0124
:1000C00020838FE290E020916000FC012083E1C05A
:1000D00080E090E0AAE7B3E489839A83AB83BC8392
:1000E00020E030E04AEF54E469817A818B819C8181
:1000F00045D2DC01CB018B8B9C8BAD8BBE8B20E082
:1001000030E040E85FE36B897C898D899E89B5D1B9
:1001100088232CF481E090E0988F8F8B3BC020E007
:100120003FEF4FE757E46B897C898D899E8922D206
:1001300018163CF520E030E040E251E469817A8114
:100140008B819C811BD2DC01CB01BC01CD0199D1FB
:10015000DC01CB01988F8F8B0FC088EC90E09A8FD9
:10016000898F898D9A8D0197F1F79A8F898F8F8961
:10017000988D0197988F8F8B8F89988D892B69F730
:1001800013C06B897C898D899E897BD1DC01CB0171
:10019000988F8F8B8F89988D9C8F8B8F8B8D9C8D5B
:1001A0000197F1F79C8F8B8F8DE290E02DE230E08C
:1001B000F90120812B61FC01208380E090E0AAE717
:1001C000B3E48D839E83AF83B88720E030E04AEFAD
:1001D00054E46D817E818F819885D0D1DC01CB0183
:1001E00089879A87AB87BC8720E030E040E85FE3EF
:1001F00069857A858B859C8540D188232CF481E0A4
:1002000090E09E878D873BC020E03FEF4FE757E4AB
:1002100069857A858B859C85ADD118163CF520E0E3
:1002200030E040E251E46D817E818F819885A6D1D6
:10023000DC01CB01BC01CD0124D1DC01CB019E87C7
:100240008D870FC088EC90E0988B8F878F85988979
:100250000197F1F7988B8F878D859E8501979E87F3
:100260008D878D859E85892B69F713C069857A8571
:100270008B859C8506D1DC01CB019E878D878D8582
:100280009E859A8B898B89899A890197F1F79A8B38
:10029000898B8EE290E0FC018081882F90E0807451
:1002A0009927892B09F414CF8DE290E02DE230E0FC
:1002B000F90120812161FC0120838EE290E02EE291
:1002C00030E0F90120812064FC01208300006C965D
:1002D0000FB6F894DEBF0FBECDBFDF91CF9108956A
:1002E000CF93DF93CDB7DEB78DE290E02DE230E023
:1002F000F90120812261FC01208378940000DF91C4
:10030000CF910895CF93DF93CDB7DEB72E970FB679
:10031000F894DEBF0FBECDBF87E390E027E330E067
:10032000F90120812860FC01208387E390E027E326
:1003300030E0F90120812460FC01208387E390E014
:1003400027E330E0F90120812260FC01208388E36B
:1003500090E028E330E0F90120812E7FFC0120832A
:1003600088E390E028E330E0F901308128E023279A
:10037000FC01208380E090E0A8E4B3E489839A83C1
:10038000AB83BC8320E030E04AEF54E469817A819A
:100390008B819C81F3D0DC01CB018D839E83AF8365
:1003A000B88720E030E040E85FE36D817E818F8197
:1003B000988563D088232CF481E090E09A87898720
:1003C0003BC020E03FEF4FE757E46D817E818F8196
:1003D0009885D0D018163CF520E030E040E251E49A
:1003E00069817A818B819C81C9D0DC01CB01BC0100
:1003F000CD0147D0DC01CB019A8789870FC088ECFB
:1004000090E09C878B878B859C850197F1F79C8773
:100410008B8789859A8501979A87898789859A85A7
:10042000892B69F713C06D817E818F81988529D0D2
:10043000DC01CB019A87898789859A859E878D877C
:100440008D859E850197F1F79E878D8788E390E0E3
:1004500028E330E0F901308128E02327FC012083E4
:100460003FDF86E390E0FC018081882F90E080717F
:100470009927892BB1F312DEF4CF2FD008F481E055
:10048000089557D088F09F5790F0B92F9927B7510A
:10049000A0F0D1F0660F771F881F991F1AF0BA9548
:1004A000C9F712C0B13081F05ED0B1E008955BC0F1
:1004B000672F782F8827B85F39F0B93FCCF386953E
:1004C00077956795B395D9F73EF49095809570959B
:1004D00061957F4F8F4F9F4F0895990F0008550FDB
:1004E000AA0BE0E8FEEF16161706E807F907C0F0BA
:1004F00012161306E407F50798F0621B730B840BC2
:10050000950B39F40A2661F0232B242B252B21F49B
:1005100008950A2609F4A140A6958FEF811D811D3B
:10052000089557FD9058440F551F59F05F3F71F0E3
:100530004795880F97FB991F61F09F3F79F087954A
:100540000895121613061406551FF2CF4695F1DFD3
:1005500008C0161617061806991FF1CF8695710563
:10056000610508940895E894BB2766277727CB0197
:1005700097F90895B2DF08F48FEF08950AD080C08C
:1005800071D028F076D018F0952309F062C067C0CA
:10059000EBCFC7DFA8F39923D9F35523C9F3950F00
:1005A00050E0551FAA27EE27FF27BB2700240894F9
:1005B000679520F4E20FF31FB41F0A1E220F331FAA
:1005C000441FAA1F6695A9F7779530F4F30FB41F5F
:1005D0000A1E121E08F46395330F441FAA1F221F20
:1005E000769599F7879520F4B40F0A1E121E631FA3
:1005F000440FAA1F221F331F8695A9F7862F712D3E
:10060000602D11249F5750408AF0E1F088234AF072
:10061000EE0FFF1FBB1F661F771F881F91505040B2
:10062000A9F79E3F510570F014C09ECF5F3FECF3D9
:10063000983EDCF3869577956795B795F795E7959E
:100640009F5FC1F7FE2B880F911D9695879597F9AF
:10065000089597F99F6780E870E060E008959FEF44
:1006600080EC089500240A94161617061806090649
:10067000089500240A941216130614060506089518
:10068000092E0394000C11F4882352F0BB0F40F4A0
:10069000BF2B11F460FF04C06F5F7F4F8F4F9F4FE0
:0606A0000895F894FFCF5D
:0206A600A900A9
:00000001FF
